:100000000C945C000C946E000C946E000C946E00CA
:100010000C946E000C946E000C946E000C946E00A8
:100020000C946E000C946E000C946E000C946E0098
:100030000C946E000C946E000C946E000C946E0088
:100040000C9495000C946E000C946E000C946E0051
:100050000C946E000C946E000C946E000C946E0068
:100060000C946E000C946E00000000002400270029
:100070002A0000000000250028002B0004040404CE
:100080000404040402020202020203030303030342
:10009000010204081020408001020408102001021F
:1000A00004081020000000080002010000030407FB
:1000B000000000000000000011241FBECFEFD8E0B8
:1000C000DEBFCDBF21E0A0E0B1E001C01D92AA30AB
:1000D000B207E1F70E94DF000C94C3010C9400000A
:1000E0003FB7F8948091060190910701A091080113
:1000F000B091090126B5A89B05C02F3F19F00196C4
:10010000A11DB11D3FBFBA2FA92F982F8827820F9D
:10011000911DA11DB11DBC01CD0142E0660F771FED
:10012000881F991F4A95D1F708951F920F920FB615
:100130000F9211242F933F938F939F93AF93BF936D
:100140008091020190910301A0910401B0910501F9
:100150003091010123E0230F2D3720F40196A11DDA
:10016000B11D05C026E8230F0296A11DB11D2093E5
:1001700001018093020190930301A0930401B093C5
:1001800005018091060190910701A0910801B091AD
:1001900009010196A11DB11D8093060190930701ED
:1001A000A0930801B0930901BF91AF919F918F91E6
:1001B0003F912F910F900FBE0F901F90189578943C
:1001C00084B5826084BD84B5816084BD85B582605C
:1001D00085BD85B5816085BD80916E00816080930D
:1001E0006E00109281008091810082608093810076
:1001F0008091810081608093810080918000816086
:10020000809380008091B10084608093B1008091E0
:10021000B00081608093B00080917A008460809308
:100220007A0080917A00826080937A0080917A00CF
:10023000816080937A0080917A00806880937A0050
:100240001092C100CDE9D0E0FE01249109E810E050
:10025000F8018491882399F090E0880F991FFC01A0
:10026000E859FF4FA591B491FC01EE58FF4F8591DD
:1002700094919FB7F8948C91822B8C939FBF41EB04
:10028000842E40E0942E3324339450E0A52E50E089
:10029000B52EF4018491FE019491F8013491332339
:1002A00009F43EC020910001882339F1833091F098
:1002B00038F48130A9F0823001F584B58F7D12C009
:1002C000873091F08830A1F08430B9F480918000BB
:1002D0008F7D03C0809180008F77809380000DC058
:1002E00084B58F7784BD09C08091B0008F7703C03B
:1002F0008091B0008F7D8093B000E32FF0E0EE0F8F
:10030000FF1FEE58FF4FA591B4913FB7F8948C9121
:10031000211103C09095982301C0982B9C933FBF57
:10032000809100018325809300010E9470002B01C1
:100330003C0188EEC82E83E0D82EE12CF12C0E94DF
:100340007000DC01CB0184199509A609B709883E24
:100350009340A105B10598F3F1E0CF1AD108E10867
:10036000F10828EE420E23E0521E611C711CC114DC
:10037000D104E104F10419F7A114B10409F489CFFF
:0A0380000E94000086CFF894FFCF22
:107E0000112484B714BE81FFF0D085E080938100F7
:107E100082E08093C00088E18093C10086E0809377
:107E2000C20080E18093C4008EE0C9D0259A86E02C
:107E300020E33CEF91E0309385002093840096BBD3
:107E4000B09BFECF1D9AA8958150A9F7CC24DD24C4
:107E500088248394B5E0AB2EA1E19A2EF3E0BF2EE7
:107E6000A2D0813461F49FD0082FAFD0023811F036
:107E7000013811F484E001C083E08DD089C08234E0
:107E800011F484E103C0853419F485E0A6D080C0E4
:107E9000853579F488D0E82EFF2485D0082F10E0AE
:107EA000102F00270E291F29000F111F8ED06801E7
:107EB0006FC0863521F484E090D080E0DECF843638
:107EC00009F040C070D06FD0082F6DD080E0C81688
:107ED00080E7D80618F4F601B7BEE895C0E0D1E017
:107EE00062D089930C17E1F7F0E0CF16F0E7DF06D8
:107EF00018F0F601B7BEE89568D007B600FCFDCFD4
:107F0000A601A0E0B1E02C9130E011968C91119780
:107F100090E0982F8827822B932B1296FA010C0160
:107F200087BEE89511244E5F5F4FF1E0A038BF0790
:107F300051F7F601A7BEE89507B600FCFDCF97BE46
:107F4000E89526C08437B1F42ED02DD0F82E2BD052
:107F50003CD0F601EF2C8F010F5F1F4F84911BD097
:107F6000EA94F801C1F70894C11CD11CFA94CF0C13
:107F7000D11C0EC0853739F428D08EE10CD085E9AC
:107F80000AD08FE07ACF813511F488E018D01DD067
:107F900080E101D065CF982F8091C00085FFFCCF94
:107FA0009093C60008958091C00087FFFCCF809118
:107FB000C00084FD01C0A8958091C6000895E0E648
:107FC000F0E098E1908380830895EDDF803219F02E
:107FD00088E0F5DFFFCF84E1DECF1F93182FE3DFCA
:107FE0001150E9F7F2DF1F91089580E0E8DFEE27F6
:047FF000FF270994CA
:027FFE00040479
:0400000300007E007B
:00000001FF
